:020000040000FA
:020000000928CD
:040002000034003492
:100010009C285F206C2097208B2029181620A91877
:100020001E2029192820291A23200D288B100B1691
:100030002910A9118B13D1208B170800AD01A9102D
:100040008030850608008316851783122912080060
:10005000AC010310AE0D01302E1AAE008511051152
:10006000851005103D20AE1985152E190515AE1801
:1000700085142E18051429110800AE1923082E190D
:100080002208AE1821082E182008A8008B13F22091
:10009000B2004D205C208B1708000310B20C03182F
:1000A0000617031C0613AF0A5920AF1D4D28AF01D8
:1000B0000800861786130800861686120800831229
:1000C000031307309F0083160313850186018517EC
:1000D00006148312031308004830A0003030A1003A
:1000E0004C30A2004130A3002030A4003130A500E4
:1000F0003230A6003330A700051085100511851198
:100100008613061386128513AD01AC01A9010130D7
:10011000AE00AF01080083160313C03081008312C4
:100120000313E73081000B118B168B170800811722
:100130008B100B168B170800B1000308B000831258
:1001400003130B19A9208B18C8203008830031082D
:100150000900AD0A05302D020319A914AC0A3F307D
:100160002C0203192915AA0AFF302A020319AB0A27
:100170000A302B0203192914A91D291005302B025E
:1001800003192916A91D2912E73081000B11080057
:100190000B128B10AA01AB01A915831685138312CC
:1001A00008002008B6002708A0002108B70036087C
:1001B000A1002208B6003708A2002308B7003608BD
:1001C000A3002408B6003708A4002508B7003608A5
:1001D000A5002608B6003708A6002708B70036088D
:1001E000A7000800303028020319592931302802AD
:1001F00003195A293230280203195B2933302802A7
:1002000003195C293430280203195D29353028028E
:1002100003195E293630280203195F293730280276
:10022000031960293830280203196129393028025E
:100230000319622941302802031963294230280238
:100240000319642943302802031965294430280220
:100250000319662945302802031967294630280208
:100260000319682948302802031969294C302802EB
:1002700003196A295030280203196B2955302802C6
:1002800003196C294E30280203196D296E29543048
:10029000B4002630B3000000B30B4C29B40B49293D
:1002A00008000A3054210800B5004721B50B552934
:1002B0000800FC346034DA34F2346634B634BE34C8
:1002C000E034FE34F634EE343E349C347A349E34DA
:0E02D0008E346E341C34CE347C34EC34003466
:02400E00383F39
:00000001FF
