:020000040000FA
:020000000928CD
:040002000034003492
:1000100081284E20592080207420291917200D286E
:100020008B140800AC01A910803086060800AB01D3
:100030000310AD0D01302D1AAD008511051185108D
:1000400005102C20AD1985152D190515AD18851431
:100050002D18051429110800AD1923082D1922089F
:10006000AD1821082D182008A8008B139C20B10082
:100070003C204B208B1708000310B10C0318061707
:10008000031C0613AE0A4820AE1D3C28AE01080032
:10009000861786130800861686120800831203133B
:1000A00007309F0083160313850186018312031313
:1000B00008004830A0003030A1004C30A200413090
:1000C000A300A401A501A601A70105108510051133
:1000D00085118613061386128613AC01AB01A901A4
:1000E0000130AD00AE01080083160313C03081005B
:1000F00083120313E73081000B118B168B17080056
:100100000800B0000308AF000B198A202F088300F5
:1001100030080900AC0A05302C020319A914AB0AF7
:100120003F302B0203192915EC3081000B11080018
:1001300029148B100B1208003030280203190329F0
:100140003130280203190429323028020319052905
:1001500033302802031906293430280203190729ED
:1001600035302802031908293630280203190929D5
:100170003730280203190A293830280203190B29BD
:100180003930280203190C294130280203190D299E
:100190004230280203190E294330280203190F297F
:1001A0004430280203191029453028020319112967
:1001B000463028020319122948302802031913294E
:1001C0004C3028020319142950302802031915292C
:1001D00055302802031916294E3028020319172911
:1001E00018295430B3002630B2000000B20BF628B4
:1001F000B30BF32808000A30FE200800B400F120F9
:10020000B40BFF280800FC346034DA34F23466346E
:10021000B634BE34E034FE34F634EE343E349C342E
:100220007A349E348E346E341C34CE347C34EC34C8
:02023000003498
:02400E00293F48
:00000001FF
